{
  "_format": "hh-sol-artifact-1",
  "contractName": "Tweeter",
  "sourceName": "contracts/Tweeter.sol",
  "abi": [
    {
      "inputs": [],
      "stateMutability": "nonpayable",
      "type": "constructor"
    },
    {
      "anonymous": false,
      "inputs": [
        {
          "indexed": false,
          "internalType": "address",
          "name": "tweeter",
          "type": "address"
        },
        {
          "indexed": false,
          "internalType": "uint256",
          "name": "id",
          "type": "uint256"
        },
        {
          "indexed": false,
          "internalType": "string",
          "name": "tweetText",
          "type": "string"
        },
        {
          "indexed": false,
          "internalType": "string",
          "name": "tweetImg",
          "type": "string"
        },
        {
          "indexed": false,
          "internalType": "bool",
          "name": "isDeleted",
          "type": "bool"
        },
        {
          "indexed": false,
          "internalType": "uint256",
          "name": "timestamp",
          "type": "uint256"
        }
      ],
      "name": "tweetCreated",
      "type": "event"
    },
    {
      "anonymous": false,
      "inputs": [
        {
          "indexed": false,
          "internalType": "string",
          "name": "tweetText",
          "type": "string"
        },
        {
          "indexed": false,
          "internalType": "string",
          "name": "tweetImg",
          "type": "string"
        }
      ],
      "name": "tweetDeleted",
      "type": "event"
    },
    {
      "inputs": [
        {
          "internalType": "string",
          "name": "_tweetText",
          "type": "string"
        },
        {
          "internalType": "string",
          "name": "_tweetImg",
          "type": "string"
        }
      ],
      "name": "addTweet",
      "outputs": [],
      "stateMutability": "payable",
      "type": "function"
    },
    {
      "inputs": [
        {
          "internalType": "uint256",
          "name": "_id",
          "type": "uint256"
        }
      ],
      "name": "deleteTweet",
      "outputs": [],
      "stateMutability": "nonpayable",
      "type": "function"
    },
    {
      "inputs": [],
      "name": "getAllTweets",
      "outputs": [
        {
          "components": [
            {
              "internalType": "address",
              "name": "tweeter",
              "type": "address"
            },
            {
              "internalType": "uint256",
              "name": "id",
              "type": "uint256"
            },
            {
              "internalType": "string",
              "name": "tweetText",
              "type": "string"
            },
            {
              "internalType": "string",
              "name": "tweetImg",
              "type": "string"
            },
            {
              "internalType": "bool",
              "name": "isDeleted",
              "type": "bool"
            },
            {
              "internalType": "uint256",
              "name": "timestamp",
              "type": "uint256"
            }
          ],
          "internalType": "struct Tweeter.tweet[]",
          "name": "",
          "type": "tuple[]"
        }
      ],
      "stateMutability": "view",
      "type": "function"
    },
    {
      "inputs": [],
      "name": "getMyTweets",
      "outputs": [
        {
          "components": [
            {
              "internalType": "address",
              "name": "tweeter",
              "type": "address"
            },
            {
              "internalType": "uint256",
              "name": "id",
              "type": "uint256"
            },
            {
              "internalType": "string",
              "name": "tweetText",
              "type": "string"
            },
            {
              "internalType": "string",
              "name": "tweetImg",
              "type": "string"
            },
            {
              "internalType": "bool",
              "name": "isDeleted",
              "type": "bool"
            },
            {
              "internalType": "uint256",
              "name": "timestamp",
              "type": "uint256"
            }
          ],
          "internalType": "struct Tweeter.tweet[]",
          "name": "",
          "type": "tuple[]"
        }
      ],
      "stateMutability": "view",
      "type": "function"
    },
    {
      "inputs": [
        {
          "internalType": "address",
          "name": "userAddress",
          "type": "address"
        }
      ],
      "name": "getUser",
      "outputs": [
        {
          "components": [
            {
              "internalType": "string",
              "name": "name",
              "type": "string"
            },
            {
              "internalType": "string",
              "name": "bio",
              "type": "string"
            },
            {
              "internalType": "string",
              "name": "profileimg",
              "type": "string"
            },
            {
              "internalType": "string",
              "name": "profileBanner",
              "type": "string"
            }
          ],
          "internalType": "struct Tweeter.user",
          "name": "",
          "type": "tuple"
        }
      ],
      "stateMutability": "view",
      "type": "function"
    },
    {
      "inputs": [],
      "name": "owner",
      "outputs": [
        {
          "internalType": "address payable",
          "name": "",
          "type": "address"
        }
      ],
      "stateMutability": "view",
      "type": "function"
    },
    {
      "inputs": [
        {
          "internalType": "uint256",
          "name": "",
          "type": "uint256"
        }
      ],
      "name": "tweets",
      "outputs": [
        {
          "internalType": "address",
          "name": "tweeter",
          "type": "address"
        },
        {
          "internalType": "uint256",
          "name": "id",
          "type": "uint256"
        },
        {
          "internalType": "string",
          "name": "tweetText",
          "type": "string"
        },
        {
          "internalType": "string",
          "name": "tweetImg",
          "type": "string"
        },
        {
          "internalType": "bool",
          "name": "isDeleted",
          "type": "bool"
        },
        {
          "internalType": "uint256",
          "name": "timestamp",
          "type": "uint256"
        }
      ],
      "stateMutability": "view",
      "type": "function"
    },
    {
      "inputs": [
        {
          "internalType": "string",
          "name": "_name",
          "type": "string"
        },
        {
          "internalType": "string",
          "name": "_bio",
          "type": "string"
        },
        {
          "internalType": "string",
          "name": "_profileimg",
          "type": "string"
        },
        {
          "internalType": "string",
          "name": "_profileBanner",
          "type": "string"
        }
      ],
      "name": "updateUser",
      "outputs": [],
      "stateMutability": "nonpayable",
      "type": "function"
    },
    {
      "inputs": [
        {
          "internalType": "address",
          "name": "",
          "type": "address"
        }
      ],
      "name": "users",
      "outputs": [
        {
          "internalType": "string",
          "name": "name",
          "type": "string"
        },
        {
          "internalType": "string",
          "name": "bio",
          "type": "string"
        },
        {
          "internalType": "string",
          "name": "profileimg",
          "type": "string"
        },
        {
          "internalType": "string",
          "name": "profileBanner",
          "type": "string"
        }
      ],
      "stateMutability": "view",
      "type": "function"
    }
  ],
  "bytecode": "0x6080604052600060015534801561001557600080fd5b50336000806101000a81548173ffffffffffffffffffffffffffffffffffffffff021916908373ffffffffffffffffffffffffffffffffffffffff1602179055506121c7806100656000396000f3fe6080604052600436106100865760003560e01c80638da5cb5b116100595780638da5cb5b14610138578063a87430ba14610163578063aefedbc2146101a3578063b5c24a01146101ce578063e8d857b0146101f757610086565b8063532561351461008b5780635775912a146100b65780636f77926b146100df5780637e75b4081461011c575b600080fd5b34801561009757600080fd5b506100a0610239565b6040516100ad91906116cb565b60405180910390f35b3480156100c257600080fd5b506100dd60048036038101906100d8919061172d565b610591565b005b3480156100eb57600080fd5b5061010660048036038101906101019190611786565b6106ca565b604051610113919061182b565b60405180910390f35b61013660048036038101906101319190611982565b61096b565b005b34801561014457600080fd5b5061014d610b84565b60405161015a9190611a1b565b60405180910390f35b34801561016f57600080fd5b5061018a60048036038101906101859190611786565b610ba8565b60405161019a9493929190611a80565b60405180910390f35b3480156101af57600080fd5b506101b8610df8565b6040516101c591906116cb565b60405180910390f35b3480156101da57600080fd5b506101f560048036038101906101f09190611ae1565b6111be565b005b34801561020357600080fd5b5061021e6004803603810190610219919061172d565b611285565b60405161023096959493929190611be5565b60405180910390f35b6060600060015467ffffffffffffffff81111561025957610258611857565b5b60405190808252806020026020018201604052801561029257816020015b61027f6113fe565b8152602001906001900390816102775790505b5090506000805b6001548110156104d757600015156002600083815260200190815260200160002060040160009054906101000a900460ff161515036104c457600260008281526020019081526020016000206040518060c00160405290816000820160009054906101000a900473ffffffffffffffffffffffffffffffffffffffff1673ffffffffffffffffffffffffffffffffffffffff1673ffffffffffffffffffffffffffffffffffffffff1681526020016001820154815260200160028201805461036090611c83565b80601f016020809104026020016040519081016040528092919081815260200182805461038c90611c83565b80156103d95780601f106103ae576101008083540402835291602001916103d9565b820191906000526020600020905b8154815290600101906020018083116103bc57829003601f168201915b505050505081526020016003820180546103f290611c83565b80601f016020809104026020016040519081016040528092919081815260200182805461041e90611c83565b801561046b5780601f106104405761010080835404028352916020019161046b565b820191906000526020600020905b81548152906001019060200180831161044e57829003601f168201915b505050505081526020016004820160009054906101000a900460ff161515151581526020016005820154815250508383806104a590611ce3565b9450815181106104b8576104b7611d2b565b5b60200260200101819052505b80806104cf90611ce3565b915050610299565b5060008167ffffffffffffffff8111156104f4576104f3611857565b5b60405190808252806020026020018201604052801561052d57816020015b61051a6113fe565b8152602001906001900390816105125790505b50905060005b828110156105875783818151811061054e5761054d611d2b565b5b602002602001015182828151811061056957610568611d2b565b5b6020026020010181905250808061057f90611ce3565b915050610533565b5080935050505090565b3373ffffffffffffffffffffffffffffffffffffffff166002600083815260200190815260200160002060000160009054906101000a900473ffffffffffffffffffffffffffffffffffffffff1673ffffffffffffffffffffffffffffffffffffffff1614610635576040517f08c379a000000000000000000000000000000000000000000000000000000000815260040161062c90611dcc565b60405180910390fd5b60016002600083815260200190815260200160002060040160006101000a81548160ff0219169083151502179055507f1777938c1f35a08fd08382ca8df6b1df9e7bc3c437b90cfb265fe097a4d7e67960026000838152602001908152602001600020600201600260008481526020019081526020016000206003016040516106bf929190611e85565b60405180910390a150565b6106d261144c565b600360008373ffffffffffffffffffffffffffffffffffffffff1673ffffffffffffffffffffffffffffffffffffffff16815260200190815260200160002060405180608001604052908160008201805461072c90611c83565b80601f016020809104026020016040519081016040528092919081815260200182805461075890611c83565b80156107a55780601f1061077a576101008083540402835291602001916107a5565b820191906000526020600020905b81548152906001019060200180831161078857829003601f168201915b505050505081526020016001820180546107be90611c83565b80601f01602080910402602001604051908101604052809291908181526020018280546107ea90611c83565b80156108375780601f1061080c57610100808354040283529160200191610837565b820191906000526020600020905b81548152906001019060200180831161081a57829003601f168201915b5050505050815260200160028201805461085090611c83565b80601f016020809104026020016040519081016040528092919081815260200182805461087c90611c83565b80156108c95780601f1061089e576101008083540402835291602001916108c9565b820191906000526020600020905b8154815290600101906020018083116108ac57829003601f168201915b505050505081526020016003820180546108e290611c83565b80601f016020809104026020016040519081016040528092919081815260200182805461090e90611c83565b801561095b5780601f106109305761010080835404028352916020019161095b565b820191906000526020600020905b81548152906001019060200180831161093e57829003601f168201915b5050505050815250509050919050565b662386f26fc1000034146109b4576040517f08c379a00000000000000000000000000000000000000000000000000000000081526004016109ab90611f08565b60405180910390fd5b60006040518060c001604052803373ffffffffffffffffffffffffffffffffffffffff1681526020016001548152602001848152602001838152602001600015158152602001428152509050806002600060016000815480929190610a1890611ce3565b91905055815260200190815260200160002060008201518160000160006101000a81548173ffffffffffffffffffffffffffffffffffffffff021916908373ffffffffffffffffffffffffffffffffffffffff160217905550602082015181600101556040820151816002019081610a9091906120bf565b506060820151816003019081610aa691906120bf565b5060808201518160040160006101000a81548160ff02191690831515021790555060a082015181600501559050507f38c5779ac46571418294ee2465c37dedbc6002dc9d04a4033cf23156da62fcd3336001548585600042604051610b1096959493929190611be5565b60405180910390a160008054906101000a900473ffffffffffffffffffffffffffffffffffffffff1673ffffffffffffffffffffffffffffffffffffffff166108fc349081150290604051600060405180830381858888f19350505050158015610b7e573d6000803e3d6000fd5b50505050565b60008054906101000a900473ffffffffffffffffffffffffffffffffffffffff1681565b6003602052806000526040600020600091509050806000018054610bcb90611c83565b80601f0160208091040260200160405190810160405280929190818152602001828054610bf790611c83565b8015610c445780601f10610c1957610100808354040283529160200191610c44565b820191906000526020600020905b815481529060010190602001808311610c2757829003601f168201915b505050505090806001018054610c5990611c83565b80601f0160208091040260200160405190810160405280929190818152602001828054610c8590611c83565b8015610cd25780601f10610ca757610100808354040283529160200191610cd2565b820191906000526020600020905b815481529060010190602001808311610cb557829003601f168201915b505050505090806002018054610ce790611c83565b80601f0160208091040260200160405190810160405280929190818152602001828054610d1390611c83565b8015610d605780601f10610d3557610100808354040283529160200191610d60565b820191906000526020600020905b815481529060010190602001808311610d4357829003601f168201915b505050505090806003018054610d7590611c83565b80601f0160208091040260200160405190810160405280929190818152602001828054610da190611c83565b8015610dee5780601f10610dc357610100808354040283529160200191610dee565b820191906000526020600020905b815481529060010190602001808311610dd157829003601f168201915b5050505050905084565b6060600060015467ffffffffffffffff811115610e1857610e17611857565b5b604051908082528060200260200182016040528015610e5157816020015b610e3e6113fe565b815260200190600190039081610e365790505b5090506000805b60015481101561110457600015156002600083815260200190815260200160002060040160009054906101000a900460ff161515148015610efa57503373ffffffffffffffffffffffffffffffffffffffff166002600083815260200190815260200160002060000160009054906101000a900473ffffffffffffffffffffffffffffffffffffffff1673ffffffffffffffffffffffffffffffffffffffff16145b156110f157600260008281526020019081526020016000206040518060c00160405290816000820160009054906101000a900473ffffffffffffffffffffffffffffffffffffffff1673ffffffffffffffffffffffffffffffffffffffff1673ffffffffffffffffffffffffffffffffffffffff16815260200160018201548152602001600282018054610f8d90611c83565b80601f0160208091040260200160405190810160405280929190818152602001828054610fb990611c83565b80156110065780601f10610fdb57610100808354040283529160200191611006565b820191906000526020600020905b815481529060010190602001808311610fe957829003601f168201915b5050505050815260200160038201805461101f90611c83565b80601f016020809104026020016040519081016040528092919081815260200182805461104b90611c83565b80156110985780601f1061106d57610100808354040283529160200191611098565b820191906000526020600020905b81548152906001019060200180831161107b57829003601f168201915b505050505081526020016004820160009054906101000a900460ff161515151581526020016005820154815250508383806110d290611ce3565b9450815181106110e5576110e4611d2b565b5b60200260200101819052505b80806110fc90611ce3565b915050610e58565b5060008167ffffffffffffffff81111561112157611120611857565b5b60405190808252806020026020018201604052801561115a57816020015b6111476113fe565b81526020019060019003908161113f5790505b50905060005b828110156111b45783818151811061117b5761117a611d2b565b5b602002602001015182828151811061119657611195611d2b565b5b602002602001018190525080806111ac90611ce3565b915050611160565b5080935050505090565b6000604051806080016040528086815260200185815260200184815260200183815250905080600360003373ffffffffffffffffffffffffffffffffffffffff1673ffffffffffffffffffffffffffffffffffffffff168152602001908152602001600020600082015181600001908161123891906120bf565b50602082015181600101908161124e91906120bf565b50604082015181600201908161126491906120bf565b50606082015181600301908161127a91906120bf565b509050505050505050565b60026020528060005260406000206000915090508060000160009054906101000a900473ffffffffffffffffffffffffffffffffffffffff16908060010154908060020180546112d490611c83565b80601f016020809104026020016040519081016040528092919081815260200182805461130090611c83565b801561134d5780601f106113225761010080835404028352916020019161134d565b820191906000526020600020905b81548152906001019060200180831161133057829003601f168201915b50505050509080600301805461136290611c83565b80601f016020809104026020016040519081016040528092919081815260200182805461138e90611c83565b80156113db5780601f106113b0576101008083540402835291602001916113db565b820191906000526020600020905b8154815290600101906020018083116113be57829003601f168201915b5050505050908060040160009054906101000a900460ff16908060050154905086565b6040518060c00160405280600073ffffffffffffffffffffffffffffffffffffffff168152602001600081526020016060815260200160608152602001600015158152602001600081525090565b6040518060800160405280606081526020016060815260200160608152602001606081525090565b600081519050919050565b600082825260208201905092915050565b6000819050602082019050919050565b600073ffffffffffffffffffffffffffffffffffffffff82169050919050565b60006114cb826114a0565b9050919050565b6114db816114c0565b82525050565b6000819050919050565b6114f4816114e1565b82525050565b600081519050919050565b600082825260208201905092915050565b60005b83811015611534578082015181840152602081019050611519565b60008484015250505050565b6000601f19601f8301169050919050565b600061155c826114fa565b6115668185611505565b9350611576818560208601611516565b61157f81611540565b840191505092915050565b60008115159050919050565b61159f8161158a565b82525050565b600060c0830160008301516115bd60008601826114d2565b5060208301516115d060208601826114eb565b50604083015184820360408601526115e88282611551565b915050606083015184820360608601526116028282611551565b91505060808301516116176080860182611596565b5060a083015161162a60a08601826114eb565b508091505092915050565b600061164183836115a5565b905092915050565b6000602082019050919050565b600061166182611474565b61166b818561147f565b93508360208202850161167d85611490565b8060005b858110156116b9578484038952815161169a8582611635565b94506116a583611649565b925060208a01995050600181019050611681565b50829750879550505050505092915050565b600060208201905081810360008301526116e58184611656565b905092915050565b6000604051905090565b600080fd5b600080fd5b61170a816114e1565b811461171557600080fd5b50565b60008135905061172781611701565b92915050565b600060208284031215611743576117426116f7565b5b600061175184828501611718565b91505092915050565b611763816114c0565b811461176e57600080fd5b50565b6000813590506117808161175a565b92915050565b60006020828403121561179c5761179b6116f7565b5b60006117aa84828501611771565b91505092915050565b600060808301600083015184820360008601526117d08282611551565b915050602083015184820360208601526117ea8282611551565b915050604083015184820360408601526118048282611551565b9150506060830151848203606086015261181e8282611551565b9150508091505092915050565b6000602082019050818103600083015261184581846117b3565b905092915050565b600080fd5b600080fd5b7f4e487b7100000000000000000000000000000000000000000000000000000000600052604160045260246000fd5b61188f82611540565b810181811067ffffffffffffffff821117156118ae576118ad611857565b5b80604052505050565b60006118c16116ed565b90506118cd8282611886565b919050565b600067ffffffffffffffff8211156118ed576118ec611857565b5b6118f682611540565b9050602081019050919050565b82818337600083830152505050565b6000611925611920846118d2565b6118b7565b90508281526020810184848401111561194157611940611852565b5b61194c848285611903565b509392505050565b600082601f8301126119695761196861184d565b5b8135611979848260208601611912565b91505092915050565b60008060408385031215611999576119986116f7565b5b600083013567ffffffffffffffff8111156119b7576119b66116fc565b5b6119c385828601611954565b925050602083013567ffffffffffffffff8111156119e4576119e36116fc565b5b6119f085828601611954565b9150509250929050565b6000611a05826114a0565b9050919050565b611a15816119fa565b82525050565b6000602082019050611a306000830184611a0c565b92915050565b600082825260208201905092915050565b6000611a52826114fa565b611a5c8185611a36565b9350611a6c818560208601611516565b611a7581611540565b840191505092915050565b60006080820190508181036000830152611a9a8187611a47565b90508181036020830152611aae8186611a47565b90508181036040830152611ac28185611a47565b90508181036060830152611ad68184611a47565b905095945050505050565b60008060008060808587031215611afb57611afa6116f7565b5b600085013567ffffffffffffffff811115611b1957611b186116fc565b5b611b2587828801611954565b945050602085013567ffffffffffffffff811115611b4657611b456116fc565b5b611b5287828801611954565b935050604085013567ffffffffffffffff811115611b7357611b726116fc565b5b611b7f87828801611954565b925050606085013567ffffffffffffffff811115611ba057611b9f6116fc565b5b611bac87828801611954565b91505092959194509250565b611bc1816114c0565b82525050565b611bd0816114e1565b82525050565b611bdf8161158a565b82525050565b600060c082019050611bfa6000830189611bb8565b611c076020830188611bc7565b8181036040830152611c198187611a47565b90508181036060830152611c2d8186611a47565b9050611c3c6080830185611bd6565b611c4960a0830184611bc7565b979650505050505050565b7f4e487b7100000000000000000000000000000000000000000000000000000000600052602260045260246000fd5b60006002820490506001821680611c9b57607f821691505b602082108103611cae57611cad611c54565b5b50919050565b7f4e487b7100000000000000000000000000000000000000000000000000000000600052601160045260246000fd5b6000611cee826114e1565b91507fffffffffffffffffffffffffffffffffffffffffffffffffffffffffffffffff8203611d2057611d1f611cb4565b5b600182019050919050565b7f4e487b7100000000000000000000000000000000000000000000000000000000600052603260045260246000fd5b7f6f6e6c792074686520747765657465722063616e2064656c657465207468652060008201527f7477656574000000000000000000000000000000000000000000000000000000602082015250565b6000611db6602583611a36565b9150611dc182611d5a565b604082019050919050565b60006020820190508181036000830152611de581611da9565b9050919050565b60008190508160005260206000209050919050565b60008154611e0e81611c83565b611e188186611a36565b94506001821660008114611e335760018114611e4957611e7c565b60ff198316865281151560200286019350611e7c565b611e5285611dec565b60005b83811015611e7457815481890152600182019150602081019050611e55565b808801955050505b50505092915050565b60006040820190508181036000830152611e9f8185611e01565b90508181036020830152611eb38184611e01565b90509392505050565b7f706c65617365207375626d697420302e3031206d617469630000000000000000600082015250565b6000611ef2601883611a36565b9150611efd82611ebc565b602082019050919050565b60006020820190508181036000830152611f2181611ee5565b9050919050565b60006020601f8301049050919050565b600082821b905092915050565b600060088302611f757fffffffffffffffffffffffffffffffffffffffffffffffffffffffffffffffff82611f38565b611f7f8683611f38565b95508019841693508086168417925050509392505050565b6000819050919050565b6000611fbc611fb7611fb2846114e1565b611f97565b6114e1565b9050919050565b6000819050919050565b611fd683611fa1565b611fea611fe282611fc3565b848454611f45565b825550505050565b600090565b611fff611ff2565b61200a818484611fcd565b505050565b5b8181101561202e57612023600082611ff7565b600181019050612010565b5050565b601f8211156120735761204481611dec565b61204d84611f28565b8101602085101561205c578190505b61207061206885611f28565b83018261200f565b50505b505050565b600082821c905092915050565b600061209660001984600802612078565b1980831691505092915050565b60006120af8383612085565b9150826002028217905092915050565b6120c8826114fa565b67ffffffffffffffff8111156120e1576120e0611857565b5b6120eb8254611c83565b6120f6828285612032565b600060209050601f8311600181146121295760008415612117578287015190505b61212185826120a3565b865550612189565b601f19841661213786611dec565b60005b8281101561215f5784890151825560018201915060208501945060208101905061213a565b8683101561217c5784890151612178601f891682612085565b8355505b6001600288020188555050505b50505050505056fea2646970667358221220818673cd075df166675ee29f25aaf1b4b85fe716403c4ec1d477b0e43c80379964736f6c63430008120033",
  "linkReferences": {},
  "deployedLinkReferences": {}
}