{
  "_format": "hh-sol-artifact-1",
  "contractName": "Tweeter",
  "sourceName": "contracts/Tweeter.sol",
  "abi": [
    {
      "inputs": [],
      "stateMutability": "nonpayable",
      "type": "constructor"
    },
    {
      "anonymous": false,
      "inputs": [
        {
          "indexed": false,
          "internalType": "address",
          "name": "tweeter",
          "type": "address"
        },
        {
          "indexed": false,
          "internalType": "uint256",
          "name": "id",
          "type": "uint256"
        },
        {
          "indexed": false,
          "internalType": "string",
          "name": "tweetText",
          "type": "string"
        },
        {
          "indexed": false,
          "internalType": "string",
          "name": "tweetImg",
          "type": "string"
        },
        {
          "indexed": false,
          "internalType": "bool",
          "name": "isDeleted",
          "type": "bool"
        },
        {
          "indexed": false,
          "internalType": "uint256",
          "name": "timestamp",
          "type": "uint256"
        }
      ],
      "name": "tweetCreated",
      "type": "event"
    },
    {
      "anonymous": false,
      "inputs": [
        {
          "indexed": false,
          "internalType": "string",
          "name": "tweetText",
          "type": "string"
        },
        {
          "indexed": false,
          "internalType": "string",
          "name": "tweetImg",
          "type": "string"
        }
      ],
      "name": "tweetDeleted",
      "type": "event"
    },
    {
      "inputs": [
        {
          "internalType": "string",
          "name": "_tweetText",
          "type": "string"
        },
        {
          "internalType": "string",
          "name": "_tweetImg",
          "type": "string"
        }
      ],
      "name": "addTweet",
      "outputs": [],
      "stateMutability": "payable",
      "type": "function"
    },
    {
      "inputs": [
        {
          "internalType": "uint256",
          "name": "_id",
          "type": "uint256"
        }
      ],
      "name": "deleteTweet",
      "outputs": [],
      "stateMutability": "nonpayable",
      "type": "function"
    },
    {
      "inputs": [],
      "name": "getAllTweets",
      "outputs": [
        {
          "components": [
            {
              "internalType": "address",
              "name": "tweeter",
              "type": "address"
            },
            {
              "internalType": "uint256",
              "name": "id",
              "type": "uint256"
            },
            {
              "internalType": "string",
              "name": "tweetText",
              "type": "string"
            },
            {
              "internalType": "string",
              "name": "tweetImg",
              "type": "string"
            },
            {
              "internalType": "bool",
              "name": "isDeleted",
              "type": "bool"
            },
            {
              "internalType": "uint256",
              "name": "timestamp",
              "type": "uint256"
            }
          ],
          "internalType": "struct Tweeter.tweet[]",
          "name": "",
          "type": "tuple[]"
        }
      ],
      "stateMutability": "view",
      "type": "function"
    },
    {
      "inputs": [],
      "name": "getMyTweets",
      "outputs": [
        {
          "components": [
            {
              "internalType": "address",
              "name": "tweeter",
              "type": "address"
            },
            {
              "internalType": "uint256",
              "name": "id",
              "type": "uint256"
            },
            {
              "internalType": "string",
              "name": "tweetText",
              "type": "string"
            },
            {
              "internalType": "string",
              "name": "tweetImg",
              "type": "string"
            },
            {
              "internalType": "bool",
              "name": "isDeleted",
              "type": "bool"
            },
            {
              "internalType": "uint256",
              "name": "timestamp",
              "type": "uint256"
            }
          ],
          "internalType": "struct Tweeter.tweet[]",
          "name": "",
          "type": "tuple[]"
        }
      ],
      "stateMutability": "view",
      "type": "function"
    },
    {
      "inputs": [
        {
          "internalType": "address",
          "name": "userAddress",
          "type": "address"
        }
      ],
      "name": "getUser",
      "outputs": [
        {
          "components": [
            {
              "internalType": "string",
              "name": "name",
              "type": "string"
            },
            {
              "internalType": "string",
              "name": "bio",
              "type": "string"
            },
            {
              "internalType": "string",
              "name": "profileimg",
              "type": "string"
            },
            {
              "internalType": "string",
              "name": "profileBanner",
              "type": "string"
            }
          ],
          "internalType": "struct Tweeter.user",
          "name": "",
          "type": "tuple"
        }
      ],
      "stateMutability": "view",
      "type": "function"
    },
    {
      "inputs": [],
      "name": "owner",
      "outputs": [
        {
          "internalType": "address payable",
          "name": "",
          "type": "address"
        }
      ],
      "stateMutability": "view",
      "type": "function"
    },
    {
      "inputs": [
        {
          "internalType": "uint256",
          "name": "",
          "type": "uint256"
        }
      ],
      "name": "tweets",
      "outputs": [
        {
          "internalType": "address",
          "name": "tweeter",
          "type": "address"
        },
        {
          "internalType": "uint256",
          "name": "id",
          "type": "uint256"
        },
        {
          "internalType": "string",
          "name": "tweetText",
          "type": "string"
        },
        {
          "internalType": "string",
          "name": "tweetImg",
          "type": "string"
        },
        {
          "internalType": "bool",
          "name": "isDeleted",
          "type": "bool"
        },
        {
          "internalType": "uint256",
          "name": "timestamp",
          "type": "uint256"
        }
      ],
      "stateMutability": "view",
      "type": "function"
    },
    {
      "inputs": [
        {
          "internalType": "string",
          "name": "_name",
          "type": "string"
        },
        {
          "internalType": "string",
          "name": "_bio",
          "type": "string"
        },
        {
          "internalType": "string",
          "name": "_profileimg",
          "type": "string"
        },
        {
          "internalType": "string",
          "name": "_profileBanner",
          "type": "string"
        }
      ],
      "name": "updateUser",
      "outputs": [],
      "stateMutability": "nonpayable",
      "type": "function"
    },
    {
      "inputs": [
        {
          "internalType": "address",
          "name": "",
          "type": "address"
        }
      ],
      "name": "users",
      "outputs": [
        {
          "internalType": "string",
          "name": "name",
          "type": "string"
        },
        {
          "internalType": "string",
          "name": "bio",
          "type": "string"
        },
        {
          "internalType": "string",
          "name": "profileimg",
          "type": "string"
        },
        {
          "internalType": "string",
          "name": "profileBanner",
          "type": "string"
        }
      ],
      "stateMutability": "view",
      "type": "function"
    }
  ],
  "bytecode": "0x608060405234801561001057600080fd5b50336000806101000a81548173ffffffffffffffffffffffffffffffffffffffff021916908373ffffffffffffffffffffffffffffffffffffffff1602179055506121c5806100606000396000f3fe6080604052600436106100865760003560e01c80638da5cb5b116100595780638da5cb5b14610138578063a87430ba14610163578063aefedbc2146101a3578063b5c24a01146101ce578063e8d857b0146101f757610086565b8063532561351461008b5780635775912a146100b65780636f77926b146100df5780637e75b4081461011c575b600080fd5b34801561009757600080fd5b506100a0610239565b6040516100ad91906116c9565b60405180910390f35b3480156100c257600080fd5b506100dd60048036038101906100d8919061172b565b610590565b005b3480156100eb57600080fd5b5061010660048036038101906101019190611784565b6106c9565b6040516101139190611829565b60405180910390f35b61013660048036038101906101319190611980565b61096a565b005b34801561014457600080fd5b5061014d610b83565b60405161015a9190611a19565b60405180910390f35b34801561016f57600080fd5b5061018a60048036038101906101859190611784565b610ba7565b60405161019a9493929190611a7e565b60405180910390f35b3480156101af57600080fd5b506101b8610df7565b6040516101c591906116c9565b60405180910390f35b3480156101da57600080fd5b506101f560048036038101906101f09190611adf565b6111bc565b005b34801561020357600080fd5b5061021e6004803603810190610219919061172b565b611283565b60405161023096959493929190611be3565b60405180910390f35b6060600060015467ffffffffffffffff81111561025957610258611855565b5b60405190808252806020026020018201604052801561029257816020015b61027f6113fc565b8152602001906001900390816102775790505b5090506000805b6001548110156104d757600015156002600083815260200190815260200160002060040160009054906101000a900460ff161515036104c457600260008281526020019081526020016000206040518060c00160405290816000820160009054906101000a900473ffffffffffffffffffffffffffffffffffffffff1673ffffffffffffffffffffffffffffffffffffffff1673ffffffffffffffffffffffffffffffffffffffff1681526020016001820154815260200160028201805461036090611c81565b80601f016020809104026020016040519081016040528092919081815260200182805461038c90611c81565b80156103d95780601f106103ae576101008083540402835291602001916103d9565b820191906000526020600020905b8154815290600101906020018083116103bc57829003601f168201915b505050505081526020016003820180546103f290611c81565b80601f016020809104026020016040519081016040528092919081815260200182805461041e90611c81565b801561046b5780601f106104405761010080835404028352916020019161046b565b820191906000526020600020905b81548152906001019060200180831161044e57829003601f168201915b505050505081526020016004820160009054906101000a900460ff161515151581526020016005820154815250508383806104a590611ce1565b9450815181106104b8576104b7611d29565b5b60200260200101819052505b80806104cf90611ce1565b915050610299565b5060008167ffffffffffffffff8111156104f4576104f3611855565b5b60405190808252806020026020018201604052801561052d57816020015b61051a6113fc565b8152602001906001900390816105125790505b50905060005b8281116105865783818151811061054d5761054c611d29565b5b602002602001015182828151811061056857610567611d29565b5b6020026020010181905250808061057e90611ce1565b915050610533565b5080935050505090565b3373ffffffffffffffffffffffffffffffffffffffff166002600083815260200190815260200160002060000160009054906101000a900473ffffffffffffffffffffffffffffffffffffffff1673ffffffffffffffffffffffffffffffffffffffff1614610634576040517f08c379a000000000000000000000000000000000000000000000000000000000815260040161062b90611dca565b60405180910390fd5b60006002600083815260200190815260200160002060040160006101000a81548160ff0219169083151502179055507f1777938c1f35a08fd08382ca8df6b1df9e7bc3c437b90cfb265fe097a4d7e67960026000838152602001908152602001600020600201600260008481526020019081526020016000206003016040516106be929190611e83565b60405180910390a150565b6106d161144a565b600360008373ffffffffffffffffffffffffffffffffffffffff1673ffffffffffffffffffffffffffffffffffffffff16815260200190815260200160002060405180608001604052908160008201805461072b90611c81565b80601f016020809104026020016040519081016040528092919081815260200182805461075790611c81565b80156107a45780601f10610779576101008083540402835291602001916107a4565b820191906000526020600020905b81548152906001019060200180831161078757829003601f168201915b505050505081526020016001820180546107bd90611c81565b80601f01602080910402602001604051908101604052809291908181526020018280546107e990611c81565b80156108365780601f1061080b57610100808354040283529160200191610836565b820191906000526020600020905b81548152906001019060200180831161081957829003601f168201915b5050505050815260200160028201805461084f90611c81565b80601f016020809104026020016040519081016040528092919081815260200182805461087b90611c81565b80156108c85780601f1061089d576101008083540402835291602001916108c8565b820191906000526020600020905b8154815290600101906020018083116108ab57829003601f168201915b505050505081526020016003820180546108e190611c81565b80601f016020809104026020016040519081016040528092919081815260200182805461090d90611c81565b801561095a5780601f1061092f5761010080835404028352916020019161095a565b820191906000526020600020905b81548152906001019060200180831161093d57829003601f168201915b5050505050815250509050919050565b662386f26fc1000034146109b3576040517f08c379a00000000000000000000000000000000000000000000000000000000081526004016109aa90611f06565b60405180910390fd5b60006040518060c001604052803373ffffffffffffffffffffffffffffffffffffffff1681526020016001548152602001848152602001838152602001600015158152602001428152509050806002600060016000815480929190610a1790611ce1565b91905055815260200190815260200160002060008201518160000160006101000a81548173ffffffffffffffffffffffffffffffffffffffff021916908373ffffffffffffffffffffffffffffffffffffffff160217905550602082015181600101556040820151816002019081610a8f91906120bd565b506060820151816003019081610aa591906120bd565b5060808201518160040160006101000a81548160ff02191690831515021790555060a082015181600501559050507f38c5779ac46571418294ee2465c37dedbc6002dc9d04a4033cf23156da62fcd3336001548585600042604051610b0f96959493929190611be3565b60405180910390a160008054906101000a900473ffffffffffffffffffffffffffffffffffffffff1673ffffffffffffffffffffffffffffffffffffffff166108fc349081150290604051600060405180830381858888f19350505050158015610b7d573d6000803e3d6000fd5b50505050565b60008054906101000a900473ffffffffffffffffffffffffffffffffffffffff1681565b6003602052806000526040600020600091509050806000018054610bca90611c81565b80601f0160208091040260200160405190810160405280929190818152602001828054610bf690611c81565b8015610c435780601f10610c1857610100808354040283529160200191610c43565b820191906000526020600020905b815481529060010190602001808311610c2657829003601f168201915b505050505090806001018054610c5890611c81565b80601f0160208091040260200160405190810160405280929190818152602001828054610c8490611c81565b8015610cd15780601f10610ca657610100808354040283529160200191610cd1565b820191906000526020600020905b815481529060010190602001808311610cb457829003601f168201915b505050505090806002018054610ce690611c81565b80601f0160208091040260200160405190810160405280929190818152602001828054610d1290611c81565b8015610d5f5780601f10610d3457610100808354040283529160200191610d5f565b820191906000526020600020905b815481529060010190602001808311610d4257829003601f168201915b505050505090806003018054610d7490611c81565b80601f0160208091040260200160405190810160405280929190818152602001828054610da090611c81565b8015610ded5780601f10610dc257610100808354040283529160200191610ded565b820191906000526020600020905b815481529060010190602001808311610dd057829003601f168201915b5050505050905084565b6060600060015467ffffffffffffffff811115610e1757610e16611855565b5b604051908082528060200260200182016040528015610e5057816020015b610e3d6113fc565b815260200190600190039081610e355790505b5090506000805b60015481101561110357600015156002600083815260200190815260200160002060040160009054906101000a900460ff161515148015610ef957503373ffffffffffffffffffffffffffffffffffffffff166002600083815260200190815260200160002060000160009054906101000a900473ffffffffffffffffffffffffffffffffffffffff1673ffffffffffffffffffffffffffffffffffffffff16145b156110f057600260008281526020019081526020016000206040518060c00160405290816000820160009054906101000a900473ffffffffffffffffffffffffffffffffffffffff1673ffffffffffffffffffffffffffffffffffffffff1673ffffffffffffffffffffffffffffffffffffffff16815260200160018201548152602001600282018054610f8c90611c81565b80601f0160208091040260200160405190810160405280929190818152602001828054610fb890611c81565b80156110055780601f10610fda57610100808354040283529160200191611005565b820191906000526020600020905b815481529060010190602001808311610fe857829003601f168201915b5050505050815260200160038201805461101e90611c81565b80601f016020809104026020016040519081016040528092919081815260200182805461104a90611c81565b80156110975780601f1061106c57610100808354040283529160200191611097565b820191906000526020600020905b81548152906001019060200180831161107a57829003601f168201915b505050505081526020016004820160009054906101000a900460ff161515151581526020016005820154815250508383806110d190611ce1565b9450815181106110e4576110e3611d29565b5b60200260200101819052505b80806110fb90611ce1565b915050610e57565b5060008167ffffffffffffffff8111156111205761111f611855565b5b60405190808252806020026020018201604052801561115957816020015b6111466113fc565b81526020019060019003908161113e5790505b50905060005b8281116111b25783818151811061117957611178611d29565b5b602002602001015182828151811061119457611193611d29565b5b602002602001018190525080806111aa90611ce1565b91505061115f565b5080935050505090565b6000604051806080016040528086815260200185815260200184815260200183815250905080600360003373ffffffffffffffffffffffffffffffffffffffff1673ffffffffffffffffffffffffffffffffffffffff168152602001908152602001600020600082015181600001908161123691906120bd565b50602082015181600101908161124c91906120bd565b50604082015181600201908161126291906120bd565b50606082015181600301908161127891906120bd565b509050505050505050565b60026020528060005260406000206000915090508060000160009054906101000a900473ffffffffffffffffffffffffffffffffffffffff16908060010154908060020180546112d290611c81565b80601f01602080910402602001604051908101604052809291908181526020018280546112fe90611c81565b801561134b5780601f106113205761010080835404028352916020019161134b565b820191906000526020600020905b81548152906001019060200180831161132e57829003601f168201915b50505050509080600301805461136090611c81565b80601f016020809104026020016040519081016040528092919081815260200182805461138c90611c81565b80156113d95780601f106113ae576101008083540402835291602001916113d9565b820191906000526020600020905b8154815290600101906020018083116113bc57829003601f168201915b5050505050908060040160009054906101000a900460ff16908060050154905086565b6040518060c00160405280600073ffffffffffffffffffffffffffffffffffffffff168152602001600081526020016060815260200160608152602001600015158152602001600081525090565b6040518060800160405280606081526020016060815260200160608152602001606081525090565b600081519050919050565b600082825260208201905092915050565b6000819050602082019050919050565b600073ffffffffffffffffffffffffffffffffffffffff82169050919050565b60006114c98261149e565b9050919050565b6114d9816114be565b82525050565b6000819050919050565b6114f2816114df565b82525050565b600081519050919050565b600082825260208201905092915050565b60005b83811015611532578082015181840152602081019050611517565b60008484015250505050565b6000601f19601f8301169050919050565b600061155a826114f8565b6115648185611503565b9350611574818560208601611514565b61157d8161153e565b840191505092915050565b60008115159050919050565b61159d81611588565b82525050565b600060c0830160008301516115bb60008601826114d0565b5060208301516115ce60208601826114e9565b50604083015184820360408601526115e6828261154f565b91505060608301518482036060860152611600828261154f565b91505060808301516116156080860182611594565b5060a083015161162860a08601826114e9565b508091505092915050565b600061163f83836115a3565b905092915050565b6000602082019050919050565b600061165f82611472565b611669818561147d565b93508360208202850161167b8561148e565b8060005b858110156116b757848403895281516116988582611633565b94506116a383611647565b925060208a0199505060018101905061167f565b50829750879550505050505092915050565b600060208201905081810360008301526116e38184611654565b905092915050565b6000604051905090565b600080fd5b600080fd5b611708816114df565b811461171357600080fd5b50565b600081359050611725816116ff565b92915050565b600060208284031215611741576117406116f5565b5b600061174f84828501611716565b91505092915050565b611761816114be565b811461176c57600080fd5b50565b60008135905061177e81611758565b92915050565b60006020828403121561179a576117996116f5565b5b60006117a88482850161176f565b91505092915050565b600060808301600083015184820360008601526117ce828261154f565b915050602083015184820360208601526117e8828261154f565b91505060408301518482036040860152611802828261154f565b9150506060830151848203606086015261181c828261154f565b9150508091505092915050565b6000602082019050818103600083015261184381846117b1565b905092915050565b600080fd5b600080fd5b7f4e487b7100000000000000000000000000000000000000000000000000000000600052604160045260246000fd5b61188d8261153e565b810181811067ffffffffffffffff821117156118ac576118ab611855565b5b80604052505050565b60006118bf6116eb565b90506118cb8282611884565b919050565b600067ffffffffffffffff8211156118eb576118ea611855565b5b6118f48261153e565b9050602081019050919050565b82818337600083830152505050565b600061192361191e846118d0565b6118b5565b90508281526020810184848401111561193f5761193e611850565b5b61194a848285611901565b509392505050565b600082601f8301126119675761196661184b565b5b8135611977848260208601611910565b91505092915050565b60008060408385031215611997576119966116f5565b5b600083013567ffffffffffffffff8111156119b5576119b46116fa565b5b6119c185828601611952565b925050602083013567ffffffffffffffff8111156119e2576119e16116fa565b5b6119ee85828601611952565b9150509250929050565b6000611a038261149e565b9050919050565b611a13816119f8565b82525050565b6000602082019050611a2e6000830184611a0a565b92915050565b600082825260208201905092915050565b6000611a50826114f8565b611a5a8185611a34565b9350611a6a818560208601611514565b611a738161153e565b840191505092915050565b60006080820190508181036000830152611a988187611a45565b90508181036020830152611aac8186611a45565b90508181036040830152611ac08185611a45565b90508181036060830152611ad48184611a45565b905095945050505050565b60008060008060808587031215611af957611af86116f5565b5b600085013567ffffffffffffffff811115611b1757611b166116fa565b5b611b2387828801611952565b945050602085013567ffffffffffffffff811115611b4457611b436116fa565b5b611b5087828801611952565b935050604085013567ffffffffffffffff811115611b7157611b706116fa565b5b611b7d87828801611952565b925050606085013567ffffffffffffffff811115611b9e57611b9d6116fa565b5b611baa87828801611952565b91505092959194509250565b611bbf816114be565b82525050565b611bce816114df565b82525050565b611bdd81611588565b82525050565b600060c082019050611bf86000830189611bb6565b611c056020830188611bc5565b8181036040830152611c178187611a45565b90508181036060830152611c2b8186611a45565b9050611c3a6080830185611bd4565b611c4760a0830184611bc5565b979650505050505050565b7f4e487b7100000000000000000000000000000000000000000000000000000000600052602260045260246000fd5b60006002820490506001821680611c9957607f821691505b602082108103611cac57611cab611c52565b5b50919050565b7f4e487b7100000000000000000000000000000000000000000000000000000000600052601160045260246000fd5b6000611cec826114df565b91507fffffffffffffffffffffffffffffffffffffffffffffffffffffffffffffffff8203611d1e57611d1d611cb2565b5b600182019050919050565b7f4e487b7100000000000000000000000000000000000000000000000000000000600052603260045260246000fd5b7f6f6e6c792074686520747765657465722063616e2064656c657465207468652060008201527f7477656574000000000000000000000000000000000000000000000000000000602082015250565b6000611db4602583611a34565b9150611dbf82611d58565b604082019050919050565b60006020820190508181036000830152611de381611da7565b9050919050565b60008190508160005260206000209050919050565b60008154611e0c81611c81565b611e168186611a34565b94506001821660008114611e315760018114611e4757611e7a565b60ff198316865281151560200286019350611e7a565b611e5085611dea565b60005b83811015611e7257815481890152600182019150602081019050611e53565b808801955050505b50505092915050565b60006040820190508181036000830152611e9d8185611dff565b90508181036020830152611eb18184611dff565b90509392505050565b7f706c65617365207375626d697420302e3031206d617469630000000000000000600082015250565b6000611ef0601883611a34565b9150611efb82611eba565b602082019050919050565b60006020820190508181036000830152611f1f81611ee3565b9050919050565b60006020601f8301049050919050565b600082821b905092915050565b600060088302611f737fffffffffffffffffffffffffffffffffffffffffffffffffffffffffffffffff82611f36565b611f7d8683611f36565b95508019841693508086168417925050509392505050565b6000819050919050565b6000611fba611fb5611fb0846114df565b611f95565b6114df565b9050919050565b6000819050919050565b611fd483611f9f565b611fe8611fe082611fc1565b848454611f43565b825550505050565b600090565b611ffd611ff0565b612008818484611fcb565b505050565b5b8181101561202c57612021600082611ff5565b60018101905061200e565b5050565b601f8211156120715761204281611dea565b61204b84611f26565b8101602085101561205a578190505b61206e61206685611f26565b83018261200d565b50505b505050565b600082821c905092915050565b600061209460001984600802612076565b1980831691505092915050565b60006120ad8383612083565b9150826002028217905092915050565b6120c6826114f8565b67ffffffffffffffff8111156120df576120de611855565b5b6120e98254611c81565b6120f4828285612030565b600060209050601f8311600181146121275760008415612115578287015190505b61211f85826120a1565b865550612187565b601f19841661213586611dea565b60005b8281101561215d57848901518255600182019150602085019450602081019050612138565b8683101561217a5784890151612176601f891682612083565b8355505b6001600288020188555050505b50505050505056fea2646970667358221220260859a0e460ca4f421fedd297b57bb5b5e6b3cee2bfaae291d52725baa89cac64736f6c63430008120033",
  "linkReferences": {},
  "deployedLinkReferences": {}
}